:100000000C94BF000C94DC000C94DC000C94DC001D
:100010000C94DC000C94DC000C94DC000C94DC00F0
:100020000C94DC000C94DC000C94DC000C94DC00E0
:100030000C94DC000C94DC000C94DC000C94DC00D0
:100040000C94C2040C94DC000C94DC000C94DC00D6
:100050000C94DC000C94DC000C94DC000C94DC00B0
:100060000C94DC000C94DC000C94DC000C94DC00A0
:100070000C94DC000C94DC000C94DC006E616E00CF
:10008000696E660000407A10F35A00A0724E18099B
:100090000010A5D4E80000E87648170000E40B54EF
:1000A000020000CA9A3B000000E1F50500008096BE
:1000B0009800000040420F000000A08601000000F0
:1000C000102700000000E8030000000064000000AA
:1000D00000000A00000000000100000000002C7673
:1000E000D888DC674F0823DFC1DFAE59E1B1B7968E
:1000F000E5E3E453C63AE651997696E8E6C28426EB
:10010000EB898C9B62ED407C6FFCEFBC9C9F40F2C6
:10011000BAA56FA5F490055A2AF75C936B6CF96742
:100120006DC11BFCE0E40D47FEF520E6B500D0ED07
:10013000902E0300943577050080841E080000206F
:100140004E0A000000C80C333333330F986E12830D
:100150001141EF8D2114893BE65516CFFEE6DB18E1
:10016000D1844B381BF77C1D901DA4BBE4242032A6
:1001700084725E228100C9F124ECA1E53D2711249F
:100180001FBECFEFD0E1DEBFCDBF11E0A0E0B1E0F8
:10019000E8E9FFE002C005900D92A234B107D9F75B
:1001A00011E0A2E4B1E001C01D92A935B107E1F769
:1001B0000E943A050C94CA070C940000A1E1B0E03B
:1001C000E4EEF0E00C94F7053C017F876E876A014E
:1001D000FC0117821682838181FD03C06FEF7FEFE0
:1001E0006FC39E012F5F3F4F398B288BF301238113
:1001F000EE85FF8523FD859123FF8191FF87EE87A3
:10020000882309F45AC3853251F4EE85FF8523FD16
:10021000859123FF8191FF87EE87853229F490E055
:10022000B3010E941C07E2CF982F10E08824992484
:100230001032B0F49B3269F09C3228F4903251F0C5
:10024000933271F40BC09D3239F0903349F4116050
:1002500028C01260146025C0186023C0106121C03E
:1002600017FD2AC0892F80538A3078F416FF06C004
:10027000FAE09F9E902C1124980E13C03AE0839EC2
:10028000802C1124880E10620CC09E3221F416FDC1
:1002900014C3106406C09C3611F4106802C098366E
:1002A00059F4EE85FF8523FD959123FF9191FF87FA
:1002B000EE87992309F0BCCF892F8554833020F431
:1002C000812F8061905E07C0892F8556833008F0AA
:1002D0009FC1812F8F7E86FD02C076E0972E6FE34F
:1002E000F62EF822953619F4F0E4FF2A07C0963668
:1002F00019F420E8F22A02C091109A94F7FE0AC07D
:100300003BE3391518F45CE3B52E02C0B92CB39465
:1003100027E009C047E0491520F4BB2447E0942EAC
:10032000F7CF292DBB24C60104969D878C87F60143
:100330006081718182819381AE014F5F5F4F0B2D90
:100340000E942E066C010981202E332400FF04C078
:1003500003FD02C01DE209C0F1FE02C01BE205C0A0
:10036000F2FC02C010E001C010E2C1018C7090707C
:10037000892BB9F1112311F483E001C084E08815C1
:1003800010F088240AC0881AF3FC07C080E290E0CD
:10039000B3010E941C078A94C9F7112329F0812F09
:1003A00090E0B3010E941C0723FE03C00CE710E09D
:1003B0000EC000E810E00BC0E114F10409F0805217
:1003C00090E0B3010E941C070F5F1F4F05C0EF2C88
:1003D000FF24F0E1EF22FF24F8018491882361F7E4
:1003E00014C1F7FE12C0BC0C24FE04C08A81813304
:1003F00009F4BA941B141CF0BB24B3942DC0F8E08C
:10040000FB1550F538E0B32E27C0F6FC25C0892D2A
:1004100090E08C159D054CF02CEFC2162FEFD20604
:1004200024F030E8F32A01C09A94992049F0E2E0E0
:10043000F0E0EC0FFD1FE90DF11D80818033A1F389
:10044000F7FE0AC0B92CB394892D90E0C816D906DE
:1004500014F0992401C09C18F7FC03C025E030E09B
:1004600009C01C141D041CF021E030E003C09601FB
:100470002F5F3F4F112311F02F5F3F4F992029F03D
:10048000892D90E00196280F391F882D90E02817BC
:10049000390714F0882401C0821A4F2C5524C20158
:1004A00089709070892B39F008C080E290E0B30128
:1004B0000E941C078A948820C1F7112329F0812FFC
:1004C00090E0B3010E941C0743FE07C008C080E310
:1004D00090E0B3010E941C078A948820C1F7F7FEC0
:1004E00046C08601D7FE02C000E010E07601089405
:1004F000E11CF11CE01AF10A41E050E04C0F5D1FD5
:10050000E40EF51E26014B185108892D90E0AA240F
:10051000BB24A81AB90A5FEF0F3F150729F48EE232
:1005200090E0B3010E941C07C016D10634F04016BB
:1005300051061CF4F701808101C080E30150104096
:100540000894E11CF11C0A151B052CF090E0B30186
:100550000E941C07E0CF0C151D0539F49A819633D3
:1005600018F4953311F424FE81E390E04BC08A81A6
:10057000813309F00F7E90E0B3010E941C0799209F
:10058000A1F08EE290E0B3010E941C0712E0E1E0CE
:10059000F0E0EC0FFD1FE10FF11D1F5F808190E087
:1005A000B3010E941C079A9491F744FC03C085E6AE
:1005B00090E002C085E490E0B3010E941C07D7FCE4
:1005C00005C0C114D10441F404FF06C0D094C19405
:1005D000D108D3948DE201C08BE290E0B3010E9478
:1005E0001C0780E305C08F5F26EF3FEFC20ED31ECE
:1005F0003AE0C316D104BCF790E0B3010E941C0797
:10060000C601C096B3010E941C07CC84DD8452C190
:10061000933631F0933799F0933509F059C023C0E0
:10062000F601808189835E010894A11CB11C22E03F
:1006300030E0C20ED31E21E0E22EF12C12C0F601F2
:10064000A080B18016FD03C06FEF7FEF02C0692D5F
:1006500070E022E030E0C20ED31EC5010E941107F7
:100660007C011F7713C0F601A080B18016FD03C086
:100670006FEF7FEF02C0692D70E022E030E0C20E24
:10068000D31EC5010E9406077C01106813FF07C036
:100690001BC080E290E0B3010E941C078A94882D61
:1006A00090E0E816F906A8F30FC0F50117FD859153
:1006B00017FF81915F0190E0B3010E941C07811038
:1006C0008A940894E108F108E114F10471F7F2C08A
:1006D000943611F0993689F517FF08C0F60120818C
:1006E00031814281538184E090E00AC0F60180812B
:1006F00091819C01442737FD4095542F82E090E082
:10070000C80ED91E9FE6F92EF12257FF09C0509559
:100710004095309521953F4F4F4F5F4F90E8F92A14
:10072000CA01B901AE014F5F5F4F2AE030E00E947D
:100730006C07E82EE889EE1A41C0953721F41F7E38
:100740002AE030E01CC0197F9F3661F0903720F41A
:10075000983509F0B2C00FC0903739F0983709F0DA
:10076000ACC004C028E030E00AC0106114FD146081
:1007700020E130E004C014FD166020E132E017FFF4
:1007800008C0F601608171818281938144E050E06C
:1007900008C0F60180819181BC0180E090E042E0D8
:1007A00050E0C40ED51EAE014F5F5F4F0E946C0734
:1007B000E82E5889E51A8FE7F82EF122F6FE0BC0D5
:1007C0008EEFF822E91438F4F4FE07C0F2FC05C0FD
:1007D0009FEEF92202C01E2D01C0192DF4FE0DC09E
:1007E000FE01EE0DF11D8081803319F4E9EEFE2249
:1007F00008C01F5FF2FE05C003C08F2D867809F088
:100800001F5F0F2DF3FC14C0F0FE0FC0181510F081
:100810009E2C0BC09E2C980C911A182D06C080E2BD
:1008200090E0B3010E941C071F5F1815C0F304C0BD
:10083000181510F4811A01C0882404FF0FC080E34A
:1008400090E0B3010E941C0702FF1DC001FD03C020
:1008500088E790E00EC088E590E00BC0802F867896
:1008600091F001FF02C08BE201C080E2F7FC8DE253
:1008700090E0B3010E941C0706C080E390E0B30142
:100880000E941C079A94E914C0F3EA94E1E0F0E0B6
:10089000EC0FFD1FEE0DF11D808190E0B3010E9471
:1008A0001C07EE2091F706C080E290E0B3010E94A1
:1008B0001C078A948820C1F799CCF301668177815F
:1008C000CB016196E2E10C9413069B01AC0160E060
:1008D00074E981E190E00E94D505C901DA01019730
:1008E000A109B109292F3A2F4B2F55272093CD006D
:1008F0008093CC0088E18093C9008EE08093CA0089
:100900000895982F8091C80085FFFCCF9093CE006A
:1009100008958091C80087FFFCCF8091CE00089594
:100920008EBD0DB407FEFDCF8EB508955C98806234
:100930008EBD0DB407FEFDCF8EB5CB0134E095958D
:1009400087953A95E1F78EBD0DB407FEFDCF8EB5C4
:10095000862F8F708EBD0DB407FEFDCF8EB55C9ACD
:10096000089584B1806B84B9509A8CB581658CBD33
:100970005C9A2C9A449A84E090E060E070E00E94D7
:10098000960408951F920F920FB60F9211240F90A4
:100990000FBE0F901F901895009729F0019729F02E
:1009A0002FEF3FEF09C0459801C044988FEF0E9498
:1009B0009004282F30E0409AC9010895CF93DF9327
:1009C000EC0180E1C030D8071CF0CFEFDFE007C0BA
:1009D00080EFC130D8076CF01C161D0664F482E06D
:1009E00090E060E070E00E94960483E090E0BE0139
:1009F0000EC0C1E0D0EF83E090E060E070E00E94C4
:100A00009604662777276C1B7D0B82E090E00E949E
:100A10009604DF91CF910895CF93DF93EC0180E1AD
:100A2000C030D8071CF0CFEFDFE007C080EFC13047
:100A3000D8076CF01C161D0664F481E090E060E0BD
:100A400070E00E94960480E090E0BE010EC0C1E01C
:100A5000D0EF80E090E060E070E00E9496046627AE
:100A600077276C1B7D0B81E090E00E949604DF915C
:100A7000CF9108950E94500578940E94B10480EDB2
:100A800097E00E940C0580E090E00E94DE0482E086
:100A900084BD95E095BD94EB97BD80936E00FFCF2C
:100AA00084E391E0909356018093550160E072ECED
:100AB00081E090E00E94620508950E94810480E038
:100AC00090E008959B01AC0184E0220F331F441F86
:100AD000551F8A95D1F760E070E489E191E00E94AA
:100AE000D505215030403093C5002093C40088E1E3
:100AF0008093C10086E08093C2000895982F809172
:100B0000C00085FFFCCF9093C6000895FC0107C08C
:100B10008091C00085FFFCCF9093C60031969081F4
:100B20009923B1F708950F931F93DF93CF93CDB718
:100B3000DEB764970FB6F894DEBF0FBECDBF2DB7FA
:100B40003EB7285030400FB6F8943EBF0FBE2DBFC1
:100B5000EDB7FEB731968E010F5F1F4FADB7BEB731
:100B600012961C930E93119720E031E03383228379
:100B700095838483778366830E9448072DB73EB7A9
:100B8000285F3F4F0FB6F8943EBF0FBE2DBFC80180
:100B90000E94860564960FB6F894DEBF0FBECDBFE7
:100BA000CF91DF911F910F910895A1E21A2EAA1BF8
:100BB000BB1BFD010DC0AA1FBB1FEE1FFF1FA2170D
:100BC000B307E407F50720F0A21BB30BE40BF50B0A
:100BD000661F771F881F991F1A9469F76095709593
:100BE000809590959B01AC01BD01CF0108952F9296
:100BF0003F924F925F926F927F928F929F92AF92AD
:100C0000BF92CF92DF92EF92FF920F931F93CF93F9
:100C1000DF93CDB7DEB7CA1BDB0B0FB6F894DEBF90
:100C20000FBECDBF09942A88398848885F846E84B6
:100C30007D848C849B84AA84B984C884DF80EE8000
:100C4000FD800C811B81AA81B981CE0FD11D0FB609
:100C5000F894DEBF0FBECDBFED010895283008F037
:100C600027E03327DA01990F311D87FD9160009647
:100C70006105710539F432602E5F3D9330E32A95AA
:100C8000E1F708959F3F30F080387105610509F064
:100C90003C5F3C5F3D93913008F08068911DDF938D
:100CA000CF931F930F93FF92EF92192F987F9695F2
:100CB000E92F96959695E90FFF27E252FF4F992766
:100CC0003327EE24FF24A701E70105900894079439
:100CD00028F4360FE71EF81E491F511D660F771FB7
:100CE000881F991F0694A1F70590079428F4E70E32
:100CF000F81E491F561FC11D770F881F991F661FB9
:100D00000694A1F70590079428F4F80E491F561F82
:100D1000C71FD11D880F991F661F771F0694A1F763
:100D20000590079420F4490F561FC71FD81F990F2D
:100D3000661F771F881F0694A9F784911095177076
:100D400041F0D695C79557954795F794E7941A952E
:100D5000C1F7E4E8F0E0689415901591359165913C
:100D6000959105907FE27395E118F10A430B560BBC
:100D7000C90BD009C0F7E10CF11E431F561FC91F54
:100D8000D01D7EF4703311F48A95E6CFE8940150BB
:100D900030F0080F0AF40027021708F4202F2395DB
:100DA000022F7A3328F079E37D932A95E9F710C072
:100DB0007D932A9589F606949795679537951795AB
:100DC0001794E118F10A430B560BC90BD00998F0A0
:100DD00023957E9173957A3308F070E37C9320130A
:100DE000B8F77E9170617D9330F0839571E37D93C8
:100DF00070E32A95E1F71124EF90FF900F911F9176
:100E0000CF91DF91992787FD90950895FC0105907A
:100E1000615070400110D8F7809590958E0F9F1FFC
:100E20000895FC016150704001900110D8F7809541
:100E300090958E0F9F1F08950F931F93CF93DF936D
:100E40008C01EB018B8181FF1BC082FF0DC02E81C5
:100E50003F818C819D812817390764F4E881F981ED
:100E60000193F983E88306C0E885F985802F099509
:100E7000892B31F48E819F8101969F838E8302C0DE
:100E80000FEF1FEFC801DF91CF911F910F910895D0
:100E9000AEE0B0E0EEE4F7E00C9405060D891E89A3
:100EA00086E08C831A8309838FEF9FE79E838D836F
:100EB0009E01275E3F4FCE0101966F89788DA90173
:100EC0000E94DE002F813885020F131FF801108267
:100ED0002E96E4E00C942106FA01AA27283051F15D
:100EE000203181F1E8946F936E7F6E5F7F4F8F4F5B
:100EF0009F4FAF4FB1E03ED0B4E03CD0670F781FBA
:100F0000891F9A1FA11D680F791F8A1F911DA11D9E
:100F10006A0F711D811D911DA11D20D009F46894D7
:100F20003F912AE0269F11243019305D3193DEF67F
:100F3000CF010895462F4770405D4193B3E00FD035
:100F4000C9F7F6CF462F4F70405D4A3318F0495D20
:100F500031FD4052419302D0A9F7EACFB4E0A69503
:100F60009795879577956795BA95C9F70097610525
:100F7000710508959B01AC010A2E0694579547957B
:100F800037952795BA95C9F7620F731F841F951F70
:080F9000A01D0895F894FFCFA5
:100F9800536574736572766F2825642C2530336425
:100FA800290A0D00FF03A00F5A0000001643CDCCFC
:100FB800CC3D00000040190000001643CDCCCC3DCC
:100FC8000000004000000002000000005D05000075
:020FD800000017
:00000001FF
